:020000040800F2
:1000000080070020D9000008092400089921000871
:1000100000000000000000000000000000000000E0
:100020000000000000000000000000008F26000813
:1000300000000000000000008D2600081D270008B9
:10004000EB000008EB000008EB000008EB000008E4
:10005000EB000008EB000008EB000008EB000008D4
:1000600000000000EB000008EB000008EB000008B7
:10007000EB000008A5270008EB000008EB000008D3
:10008000EB000008EB000008EB000008EB000008A4
:1000900000000000EB000008EB000008EB00000887
:1000A000EB000008EB000008EB000008E52F00085B
:1000B000D1300008EB000008000000000000000044
:1000C0000448854600F0CCF800480047C1320008DB
:1000D000C046C046800700200448804704480047C7
:1000E000FEE7FEE7FEE7FEE7FEE7FEE7A1270008E2
:1000F000C100000830B50B46014600202022012433
:1001000009E00D46D5409D4205D31D469540491B4B
:100110002546954040191546521E002DF1DC30BD94
:10012000F0B51FB40646002082B005464024019178
:1001300000901BE0019922460F46304600F07FF800
:10014000049A059B801A994110D3104619462246FD
:1001500000F065F8361A8F410197224601200021F0
:10016000009F00F05CF838184D4100902046641E56
:100170000028DFDC019B00982946324607B0F0BD1D
:10018000F0B51FB486B00020009001900290069850
:10019000069980B204900798090C020400141143D8
:1001A00007900027089D099806913E463C4603901B
:1001B0000398A9B20204000C039004982D0C154377
:1001C00048430021224600F02AF8C7197141103433
:1001D0000E46402CECDB3846029A00F020F8009ADC
:1001E000019B8018009059410298019110300290B3
:1001F0004028CCDB00980BB0F0BDD2B201E0027019
:10020000401C491EFBD270470022F6E710B513468A
:100210000A4604461946FFF7F0FF204610BD10B508
:10022000202A04DB0146203A9140002010BD914075
:1002300020239C1A0346E3401943904010BD10B59B
:10024000202A04DB0846203AD040002110BD0B468E
:10025000D340D0402024A21A91400843194610BD33
:10026000064C0125064E05E0E36807CC2B430C3C09
:1002700098471034B442F7D3FFF726FFEC3E00084E
:100280000C3F000800B587B000BF7548406B0121E6
:100290000843734948630846406BC007C00F01908C
:1002A00000BF00BFC81402900120039004900220F8
:1002B000059002A90520000700F084F90120000341
:1002C00002900120039004900220059002A90520CD
:1002D000000700F077F9202002900120039004909D
:1002E0000220059002A90520000700F06BF980208C
:1002F00002900120039004900220059002A905209D
:10030000000700F05FF90122D1020520000700F08C
:100310004EFA012211030520000700F048FA0122DD
:1003200020210520000700F042FA0122802105204B
:10033000000700F03CFA0122D1020520000700F07E
:1003400036FA642000F028F900220121C9020520B4
:10035000000700F02CFA642000F01EF90122D102FF
:100360000520000700F023FA0021AE2002F04FF92B
:100370000021022002F04BF90021102002F047F981
:100380000021402002F043F90021812002F03FF9D2
:100390000021CF2002F03BF90021A12002F037F923
:1003A0000021C82002F033F90021A62002F02FF925
:1003B0000021A82002F02BF900213F2002F027F9AC
:1003C0000021D32002F023F90021084602F01FF992
:1003D0000021D52002F01BF90021802002F017F93E
:1003E0000021D92002F013F90021F12002F00FF9C9
:1003F0000021DA2002F00BF90021122002F007F9A7
:100400000021DB2002F003F90021402002F0FFF878
:100410000021202002F0FBF80021022002F0F7F872
:1004200000218D2002F0F3F80021142002F0EFF8F3
:100430000021A42002F0EBF80021A62002F0E7F84A
:100440000021AF2002F0E3F80021AF2002F0DFF836
:1004500001F0DCFF0021084601F0F8FF07B000BD05
:100460000010024072B600BFFEE7000001460029FE
:1004700001D1012070472520405C022808D00420CB
:10048000C86300BF00222420425400BF0120F1E7CE
:10049000086800680E2290430A681060486C006883
:1004A000FF22013290434A6C1060086800684008DF
:1004B00040000A681060124840681C230A6C1A4009
:1004C0000123934018430E4A50608A6CC86C5060F8
:1004D000086D002809D0086D0068FF2201329043A2
:1004E0000A6D10604A6D886D5060012225204254CB
:1004F00000BF00222420425400BF0020BAE70000C1
:100500000000024070B5044600252520005D022849
:1005100003D00420E06301253AE0206800680E2142
:10052000884321680860206800684008400021680E
:100530000860606C0068FF2101318843616C0860CD
:10054000144840681C22216C114001228A4010434B
:1005500010494860A16CE06C4860206D002809D00B
:10056000206D0068FF2101318843216D0860616DB5
:10057000A06D486001212520015500BF00212420E5
:10058000015500BFA06B002802D02046A16B884710
:10059000284670BD0000024070B5044600F00EF918
:1005A00006462546681C002802D0054800782D180C
:1005B00000BF00F003F9801BA842FAD370BD000011
:1005C0001400002070B503460A460021D7E001263A
:1005D0008E4014683440002C73D01579AD07AD0FF0
:1005E000012D04D01579AD07AD0F022D18D19868F3
:1005F0004E000325B5400646AE4330464E00D56852
:10060000B54028439860586801258D400646AE43A2
:1006100030461026556835402D098D4028435860D6
:100620001579AD07AD0F032D0BD0D8684E0003250B
:10063000B5400646AE4330464E009568B540284367
:10064000D8601579AD07AD0F022D15D1CD08AE00DC
:100650001D462035A8594D07EE0E0F25B54006461C
:10066000AE4330464E07F60E1569B5402843CD0817
:10067000AD001E462036705118684E000325B54067
:100680000646AE4330461579AD07AD0F4E00B54076
:10069000284318600326360455683540002D6DD078
:1006A0003A4D8E08B600A8598D07EE0E0F25B540BD
:1006B0000646AE43304605252D07AB4202D1002544
:1006C00010E05BE0324DAB4201D101250AE0314D33
:1006D000AB4201D1022505E02F4DAB4201D10325EC
:1006E00000E005258E07F60EB5402843274D8E08FD
:1006F000B600A851254D603D28680546A54328460B
:100700000126360555683540002D02D005462543A3
:1007100028461E4D603D286068680546A54328466A
:100720000126760555683540002D02D00546254343
:100730002846164D603D6860144D203568680546B2
:10074000A54328460126760455683540002D02D081
:100750000546254328460D4D203568602868054626
:10076000A54328460126360455683540002D02D0A1
:10077000054625432846054D20352860491C156847
:10078000CD40002D00D022E770BD0000601802406F
:100790000004005000080050000C0050024613698D
:1007A0000B40002B01D0012000E000207047002A00
:1007B00001D0816100E0816270470000014800685B
:1007C000704700000C0000200348006803490978C6
:1007D00040180149086070470C00002014000020F8
:1007E00010B5002408480068FF210131084306497C
:1007F0000860032000F00AF8002801D0012401E07D
:1008000000F034F8204610BD00200240F8B5044640
:1008100000251348007800281ED0114801787D205B
:10082000C000FFF767FC074639460E480068FFF72F
:1008300061FC064600F02AFE00280BD1042C07D2EA
:1008400000222146401E00F045F80748046004E0FD
:10085000012502E0012500E001252846F8BD000041
:1008600014000020180000201000002008B500BF70
:100870000E480068012108430C49086008460068DA
:10088000C007C00F009000BF00BF00BF074840383E
:10089000C06B8905084305494039C8630846C06BE9
:1008A00009040840009000BF00BF08BD401002408E
:1008B0000146002909DB00BF00BFCB06DB0E012289
:1008C0009A40034B1A6000BF00BF00BF7047000092
:1008D00000E100E070B504460D4616462946204664
:1008E00002F062FC70BD000070B50446114800685B
:1008F00003214902884320430E4908604815844279
:1009000016D10D4909680622514308460B49FFF7E5
:10091000F1FB451C05E0002D01D06D1E01E0032018
:1009200070BD044840690121890208408842F2D024
:100930000020F5E7007000401800002040420F0042
:10094000FEB50446002700200290012149042068DA
:10095000084088427BD1002001909648C06BC902B4
:10096000084000280ED100BF9248C06B084391494F
:10097000C8630846C06B09040840009000BF00BF70
:10098000012001908C480068FF21013108438A4909
:100990000860FFF713FF064606E0FFF70FFF801B16
:1009A000022801D9032706E083480068FF210131AE
:1009B00008400028F1D000BF002F4BD17D484030C7
:1009C000C569032109020D40002D1AD0606AA842B2
:1009D00017D078484030C069884305467548403094
:1009E000C06901210904084372494031C8610846C1
:1009F000C0690121090488436E494031C861084635
:100A0000C561E807C00F002813D0FFF7D7FE0646E0
:100A100007E0FFF7D3FE801B6849884201D903270E
:100A200006E064484030C069022108400028F0D048
:100A300000BF002F0CD15F484030C069032109027C
:100A40008843616A08435B494031C86103E00DE0B7
:100A5000029700E002970198012806D15548C06B23
:100A60000121090788435349C86300BF2078C007A4
:100A7000C00F002809D04F484030406980088000EE
:100A8000616808434B4940314861102120680840A3
:100A900010280AD147484030406903218902884321
:100AA000A168084343494031486101214902206857
:100AB000084088420AD13F484030406903218904F8
:100AC0008843616908433B494031486101218902FB
:100AD0002068084088420AD13648403040690321E6
:100AE00009058843A1690843324940314861202102
:100AF0002068084020280AD12E4840304069032150
:100B000009038843E16808432A49403148610121CB
:100B1000890320680840884213D126484030406944
:100B200080008008E1690843224940314861090694
:100B3000E069884205D11F48C068891308431D49F0
:100B4000C8600121490520680840884214D119482D
:100B50004030406949008843216A084315494031C3
:100B6000486101218905206A884205D11148C06881
:100B7000890008430F49C8600121C9022068084064
:100B8000884215D10B4840304069032189038843CE
:100B900021690843074940314861012189032069DF
:100BA000884205D10348C068890008430149C860EC
:100BB0000298FEBD00100240007000408813000043
:100BC00070B504460D46002C01D1012070BD6B4864
:100BD00000684007400FA84218D268480068C00863
:100BE000C000284365490860FFF7E8FD064607E0B6
:100BF000FFF7E4FD801B6249884201D90320E5E745
:100C00005E4800684007400FA842F1D102212068E9
:100C10000840022815D1042120680840042807D183
:100C2000584880680721090388434018554988605F
:100C3000544880680F2109028843A168084351493C
:100C400088602078C007C00F002854D06068012851
:100C500008D14C48006801214904084000282ED1E1
:100C60000120B3E76068022808D1464800680121E6
:100C700049060840002822D10120A7E76068002823
:100C800008D140480068012189020840002816D197
:100C900001209BE76068032808D13A484030006A89
:100CA0000221084000280AD101208FE73548403052
:100CB000C06902210840002801D1012086E731489F
:100CC0008068C008C000616808432E498860FFF74B
:100CD00075FD064607E0FFF771FD801B2849884235
:100CE00001D9032072E727488068382108406168ED
:100CF000C9008842EFD1214800684007400FA84250
:100D000018D91E480068C008C00028431B49086065
:100D1000FFF754FD064607E0FFF750FD801B18491A
:100D2000884201D9032051E7144800684007400F6A
:100D3000A842F1D1042120680840042808D11148B4
:100D40008068072109038843E16808430D498860EA
:100D500000F03AF80B4989680F2212021140090A83
:100D60008900094A515CC906C90EC8400749086094
:100D700007480068FFF74AFD28E70000002002400E
:100D80008813000000100240E4340008180000201E
:100D90001000002001480068704700001800002083
:100DA00000B5FFF7F7FF06498968072212031140D3
:100DB000090B8900034A515CC906C90EC84000BD31
:100DC0000010024024350008FEB5354880683821FF
:100DD000084000280DD13248006809020840C10AC5
:100DE0000120884000902F480099FFF783F90446BE
:100DF00054E02B48806838210840082801D12A4C4B
:100E00004CE02748806838210840102834D1244815
:100E1000C0688607B60F2248C068702108400009E4
:100E2000401C0190022E0FD0032E0CD11E480199B8
:100E3000FFF760F91A49C9687F2212021140090AB6
:100E4000484305460DE000BF16480199FFF752F9E7
:100E50001349C9687F2212021140090A4843054616
:100E600000BF00BF0E48C068400F471C39462846E7
:100E7000FFF740F9044611E009488068382108402E
:100E8000202801D1840209E0054880683821084003
:100E9000182802D17D24240200E000242046FEBD53
:100EA000001002400024F40000127A00FEB504464F
:100EB000002C01D10120FEBD2078C007C00F002802
:100EC0006FD0F748876838210F40C0688607B60F93
:100ED000102F01D1032E01D0082F0BD1F04800684C
:100EE00001214904084000285BD06068002858D1DF
:100EF0000120E0E700BF012109046068884205D1B4
:100F0000E74800680843E649086021E00521090434
:100F1000606888420ED1E2480068012189040843D4
:100F2000DF49086008460068012109040843DC49DC
:100F300008600DE0DA480068012109048843D849B7
:100F4000086008460068012189048843D449086084
:100F500000BF6068002812D0FFF730FC054606E0AD
:100F6000FFF72CFC401B642801D90320A3E7CC48E1
:100F700000680121490408400028F1D011E0FFF782
:100F80001DFC054606E0FFF719FC401B642801D94B
:100F9000032090E7C2480068012149040840002866
:100FA000F1D1022120680840022873D1BC48806832
:100FB000382108400746BA48C0688607B60F102F88
:100FC00001D1022E01D0002F36D1B5480068012191
:100FD00089020840002804D0E068002801D10120DF
:100FE00069E7AF4840687F210902884361690902C7
:100FF0000843AB494860002F16D108460068072116
:10100000C902884321690843A54908600846006869
:101010000722D2021040C20A012090400146A14896
:10102000FFF768F8A0490860A0480068FFF7EEFBEA
:10103000002849D001203EE7E06800282BD09848DE
:1010400000680721C9028843216908439449086060
:10105000084600688915084391490860FFF7AEFB10
:10106000054606E0FFF7AAFB401B022801D9032032
:1010700021E78B4800680121890208400028F1D04F
:10108000874840687F210902884361690902084353
:101090008349486018E082480068FF210131884395
:1010A0007F490860FFF78AFB054606E0FFF786FBED
:1010B000401B022801D90320FDE679480068012180
:1010C000890208400028F1D108212068084008283A
:1010D00049D1734880683821084018280BD17048DE
:1010E0004030006A0221084000283CD0A069002856
:1010F00039D10120DFE6A06900281AD068484030C5
:10110000006A01210843664940310862FFF756FB37
:10111000054606E0FFF752FB401B022801D90320D9
:10112000C9E65F484030006A022108400028F1D03B
:1011300019E05B484030006A40084000584940319F
:101140000862FFF73BFB054606E0FFF737FB401B55
:10115000022801D90320AEE651484030006A02213E
:1011600008400028F1D104212068084004287CD1DF
:10117000002001904A4880683821084020280BD17F
:1011800047484030C0690221084000286ED0A0685E
:1011900000286BD101208EE64148C06B010F012071
:1011A0008843002810D000BF3D48C06B01210907CB
:1011B00008433B49C8630846C06B090408400090D7
:1011C00000BF00BF0120019039480068FF210131B4
:1011D0000840002816D136480068084334490860A2
:1011E000FFF7ECFA054606E0FFF7E8FA401B022895
:1011F00001D903205FE62E480068FF210131084035
:101200000028F1D000BFA068012808D12448403050
:10121000C0690121084322494031C86120E0A0682B
:1012200005280FD11E484030C069042108431C49DD
:101230004031C8610846C06901210843184940315E
:10124000C8610DE016484030C069410849001448A3
:101250004030C161C0690421884311494031C861EF
:1012600000BFA068002816D001E040E03EE0FFF794
:10127000A5FA054607E0FFF7A1FA401B0D49884291
:1012800001D9032017E606484030C0690221084012
:101290000028F0D01EE0FFF791FA054614E00000A8
:1012A000001002400024F40018000020100000206C
:1012B0000070004088130000FFF780FA401B664969
:1012C000884201D90320F6E56448C069022108403C
:1012D0000028F1D10198012808D160484038C06B3E
:1012E0000121090788435D494039C86300BFE069AF
:1012F00000285CD0594840388068382108401028C0
:101300007CD0E069022853D154484038006801215C
:1013100009068843514940390860FFF74FFA0546EE
:1013200006E0FFF74BFA401B022801D90320C2E573
:101330004A48403800680121490608400028F0D199
:10134000616A206A0843A16A09020843E16A084306
:10135000216B0843616B084340494039C968404AE2
:10136000114008433D494039C860084600680121E2
:10137000090608433949403908600846C06809042D
:10138000084336494039C860FFF718FA054606E0B9
:10139000FFF714FA401B022801D903208BE52F48E0
:1013A000403800680121490608400028F0D050E08C
:1013B0002A484038006801210906884327494039F6
:1013C0000860FFF7FBF9054606E0FFF7F7F9401B59
:1013D000022801D903206EE5204840380068012129
:1013E000490608400028F0D11C484038C0681D4913
:1013F00008401A494039C8602BE0FFE7E06901283E
:1014000000D158E515484038C668B107890F206AF1
:1014100081421CD170203040616A884217D17F2000
:1014200000023040A16A0902884210D11F20400406
:101430003040E16A88420AD1072040063040216BE3
:10144000884204D1710F4907606B814201D00120AD
:1014500031E500202FE50000881300004010024015
:101460008C80C111FCFFFEEE042806D106490969F3
:1014700004221143044A116105E003490969042269
:101480009143014A1161704700E000E070B50446E5
:101490002546681E0949884201D901200CE0681ED2
:1014A000074948610321081F01F07EFE002004491E
:1014B000886107200861002070BD0000FFFFFF0069
:1014C00000E000E070477047704710B50446002CFC
:1014D00001D1012010BD3D20005D002805D1002173
:1014E0003C200155204600F027F802213D200155FF
:1014F000211D206801F08CF901214820015500BF11
:101500003E2001553F200155402001554120015505
:10151000422001554320015500BF00BF4420015522
:1015200045200155462001554720015500BF3D206B
:1015300001550020CEE7000010B58CB004462821EC
:1015400002A8FEF761FE14492068884222D10120DA
:101550004005029040000A9002A8FFF7F1F9002828
:1015600001D0FEF77FFF00BF0C4800680121C902CF
:1015700008430A49086008460068C91408400190F9
:1015800000BF00BF032211460D20FFF7A3F90D2075
:10159000FFF78EF90CB010BD002C01404010024046
:1015A00001463D20405C012801D001207047022304
:1015B0003D2043540868C068012318430B68D86075
:1015C000124B0868984208D001239B07086898428C
:1015D00003D00F4B086898420FD1086882680D4B02
:1015E0001A40062A0FD0D81F82420CD00868006823
:1015F000012318430B68186005E0086800680123A0
:1016000018430B6818600020D0E70000002C014050
:10161000000400400700010001460868C068400857
:1016200040000A68D06000BF0868006A0A4A10409B
:1016300000280BD10868006A92101040002805D1DC
:1016400008680068400840000A68106000BF012276
:101650003D2042540020704711110000F8B50446A7
:101660000D460020009000BF3C20005D012801D104
:101670000220F8BD01213C20015500BF02213D2080
:101680000155206886683A480640FF210902304625
:1016900088430646206886602868502834D00CDCD1
:1016A000202851D004DC00284CD0102852D14AE028
:1016B00030284AD040284DD13AE060282ED07028FA
:1016C00007D001210903401A02D0401A42D10DE08F
:1016D00043E0EB686A68A968206801F0F1F82068C7
:1016E0008668772006432068866036E0EB686A6883
:1016F000A968206801F0E4F8206880680121890366
:1017000008432168886028E0EA686968206801F079
:10171000F1F85021206801F0E1F81EE0EA686968FC
:10172000206801F000F96021206801F0D7F814E08A
:10173000EA686968206801F0DDF84021206801F05E
:10174000CDF80AE000BF00BF00BF2968206801F0A3
:10175000C5F802E00120009000BF00BF01213D203C
:10176000015500BF00213C20015500BF009880E7D3
:1017700088FFCEFF7047000070B504462068C66839
:101780002068056902202840022819D1304002282B
:1017900016D1401F216808610120207720688069E8
:1017A0008007800F002803D02046FFF7E3FF05E005
:1017B000204600F0B3F8204600F0B1F80020207772
:1017C0000420284004281AD13040042817D1C043EF
:1017D00021680861022020772068806903210902BE
:1017E0000840002803D02046FFF7C4FF05E020464C
:1017F00000F094F8204600F092F8002020770820AE
:101800002840082819D13040082816D1C043216843
:101810000861042020772068C0698007800F0028B5
:1018200003D02046FFF7A6FF05E0204600F076F83B
:10183000204600F074F8002020771020284010285F
:101840001AD13040102817D1C04321680861082000
:1018500020772068C069032109020840002803D0CE
:101860002046FFF787FF05E0204600F057F82046A6
:1018700000F055F800202077E807C00F00280AD0B4
:10188000F007C00F002806D00120C043216808617E
:10189000204600F045F880202840802806D001200E
:1018A0004003284001214903884209D1802030406B
:1018B000802805D11848216808612046FFF703FEFB
:1018C000FF2001302840FF210131884209D18020CA
:1018D0003040802805D1C843216808612046FFF7C1
:1018E000F1FD40202840402808D13040402805D153
:1018F000C04321680861204600F020F820202840DD
:10190000202808D13040202805D1C0432168086133
:101910002046FFF7D9FD70BD7FDFFFFF704770479E
:101920000449884204D104490968491C024A1160EB
:1019300070470000E80200201C000020704770473C
:101940007047704770477047F0B585B0044620680F
:10195000C5692068066820688768FA4828400390AF
:101960000398002814D120202840002810D02020DF
:101970003040002804D1012000073840002807D05B
:10198000606F002802D02046616F884705B0F0BD27
:10199000039800287ED0EC483840002803D1EB485B
:1019A00030400028F6D0E807C00F00280DD0FF20F7
:1019B00001303040002808D00120216808629020C2
:1019C0000059012108439021085102202840002895
:1019D0000CD0F807C00F002808D002202168086248
:1019E00090200059042108439021085104202840E8
:1019F00000280CD0F807C00F002808D00420216868
:101A000008629020005902210843902108510820C3
:101A10002840002810D020203040002803D1CA4898
:101A20003840002808D0082021680862902000591A
:101A300008210843902108510120C00228400028B5
:101A40000ED0012080063040002809D00120C002BD
:101A500021680862902000592021084390210851F4
:101A60009020005900285ED02020284000280ED069
:101A700020203040002804D10120000738400028F1
:101A800005D0606F002802D02046616F8847902003
:101A9000005900E048E0029020688068402108403A
:101AA000402804D0282102980840002835D020463C
:101AB00001F058F82068806840210840402828D16B
:101AC00000BF01F0ADFB0190012001F0BBFB2068DD
:101AD00080684021884321688860019801F0B2FB4A
:101AE00000BF8020005900280FD09949802000595C
:101AF000816380210859FEF705FD002813D080225C
:101B000010591259916B88470DE02046FFF71BFFD3
:101B100009E02046FFF717FF05E02046FFF713FF17
:101B200000219020015131E7E06E01287ED1102084
:101B3000284000287AD0102030400028FAD0102009
:101B4000216808622068806840210840402876D1DA
:101B5000802000590068406880B2019001980028F8
:101B60006CD05C20015B0198814267DD5E210198A9
:101B70000853802000590068006820210840002890
:101B80004DD100BF01F04CFB0090012001F05AFB49
:101B900020680068FF2101318843216808600098AF
:101BA00001F050FB00BF00BF01F03AFB00900120A4
:101BB00001F048FB20688068400840002168886088
:101BC000009801F03FFB00BF00BF01F029FB00902F
:101BD000012001F037FB206880684021884321689C
:101BE0008860009801F02EFB00BF20218C2001515D
:101BF0000020E06600BF01F013FB0090012001F01F
:101C000021FB206800681021884321680860009843
:101C100001F018FB00BF80210859FEF727FC0220C5
:101C200020675C20025B5E20005B02E057E006E07C
:101C300004E0101A81B22046FFF781FEA6E65C2080
:101C4000015B5E20005B081A80B201905E20005BA1
:101C5000002843D00198002840D000BF01F0E0FAEE
:101C60000090012001F0EEFA20680068FF21213188
:101C7000884321680860009801F0E4FA00BF00BFC3
:101C800001F0CEFA0090012001F0DCFA20688068B3
:101C90002D49C943084021688860009801F0D2FAB4
:101CA00000BF20218C2001510020E066606700BF4A
:101CB00001F0B6FA0090012001F0C4FA2068006833
:101CC0001021884321680860009801F0BBFA00BF2A
:101CD0000220206720460199FFF731FE56E60120D9
:101CE0000005284000280CD001208005384000283D
:101CF00007D001200005216808622046FFF722FE78
:101D000044E68020284000280FD080203040002862
:101D100004D10120C0053840002806D0A06F00285B
:101D200002D02046A16F884730E640202840002896
:101D300010D04020304000280CD0204600F054FF46
:101D400024E600000F08000001000010200100043C
:101D50004D2B00080120C0052840002808D0012094
:101D600080073040002803D02046FFF7EAFD0DE64B
:101D7000012000062840002807D0F00FC0070028E7
:101D800003D02046FFF7DCFD00E600BFFEE510B5FE
:101D90000446002C01D1012010BDA069002800D00C
:101DA00000E000BF88200059002805D100218420D0
:101DB0000155204600F02CF824218820015120688C
:101DC00000684008400021680860A06A002802D02E
:101DD000204600F0C1FD204600F022FF012800D17E
:101DE000DAE7206840680921C90288432168486011
:101DF000206880682A2188432168886020680068FC
:101E00000121084321680860204600F01DFEC3E759
:101E100010B586B00446142101A8FEF7F5F947492C
:101E2000206888423CD100BF4548006801218903F1
:101E300008434349086008460068012189030840B7
:101E4000009000BF00BF00BF3D484038406B0221FA
:101E500008433B49403948630846406B022108402B
:101E6000009000BF00BFC02001900220029000201F
:101E700003900490059001A93248FEF7A3FB324875
:101E800000680068202108432F4909680860032280
:101E900011461B20FEF71EFD1B20FEF709FD4BE03F
:101EA0002A492068884247D100BF25484038C06B86
:101EB00001214904084322494039C8630846C06BE0
:101EC000012149040840009000BF00BF00BF1C482A
:101ED0004038406B0121084319494039486308469E
:101EE000406BC007C00F009000BF00BF0C200190E6
:101EF000022002900020039004900120059001A987
:101F000005200007FEF75EFB1148006800682021ED
:101F100008430F49096808600D48006800681021EF
:101F200008430B4909680860032211461C20FEF78C
:101F3000D1FC1C20FEF7BCFC06B010BD00380140EF
:101F40004010024000040050C00100200044004046
:101F500054020020FFB585B004460D4617468C207C
:101F60000059202877D1002D01D0002F02D1012067
:101F700009B0F0BD01210903A068884208D1206999
:101F8000002805D1E807C00F002801D00120EFE7A5
:101F900000219020015122218C2001510020E06677
:101FA000FEF70CFC02905C2007535E20075300BF35
:101FB00001210903A06888420AD12069002803D1C1
:101FC00037496020015324E0FF216020015320E0C5
:101FD000A06800280AD12069002803D1FF216020D1
:101FE000015316E07F216020015312E0012109070F
:101FF000A06888420AD12069002803D17F2160208F
:10200000015306E03F216020015302E000216020DF
:10201000015300BF6020005B039001210903A06809
:10202000884205D12069002802D10026049502E0EB
:102030002E460020049028E00898009000222021DD
:102040002046029B00F074FF002805D020218C2040
:10205000015103208CE721E0002E09D12068406A5D
:1020600003990840049908800498801C049006E0B5
:102070002068406A0399C9B208403070761C5E201F
:10208000005B401E81B25E2001535E20005B002891
:10209000D2D120218C200151002069E7022067E77E
:1020A000FF010000FFB583B004460D4617468820A7
:1020B000005920286DD1002D01D0002F02D1012020
:1020C00007B0F0BD01210903A068884208D120694A
:1020D000002805D1E807C00F002801D00120EFE754
:1020E000002190200151212188200151FEF766FB3B
:1020F0000190542007535620075301210903A0687B
:10210000884205D12069002802D10026029502E00C
:102110002E460020029024E00698009000228021A4
:102120002046019B00F004FF002804D020218820D5
:1021300001510320C4E7002E09D102980088C00590
:10214000C00D216888620298801C029003E03078FC
:1021500021688862761C5620005B401E81B25620A2
:1021600001535620005B0028D6D10698009000222B
:1021700040212046019B00F0DBFE002804D02021F6
:102180008820015103209BE7202188200151002055
:1021900096E7022094E7704700BFFEE700B587B0DE
:1021A00000BF00BF0E48406B012108430C49486343
:1021B0000846406BC007C00F019000BF00BF00BFC2
:1021C000012002900020039001200490022005903D
:1021D00002A905200007FEF7F5F907B000BD0000D1
:1021E0000010024010B5012105200007FEF7D6FAC5
:1021F000002804D10A2001F033F8012010BD00208E
:10220000FCE7000000B587B0142102A8FDF7FCFF31
:1022100000BF00BF1D48406B042108431B494863B1
:102220000846406B04210840019000BF00BF00BF7A
:1022300000BF00BF1548406B084314494863084677
:10224000406B04210840019000BF00BF00BF48035D
:1022500002900120039004900320059002A90C48ED
:10226000FEF7B0F901208003029002A90848FEF7AA
:10227000A9F90122D1030648FEF799FA0122910338
:102280000348FEF794FA07B000BD000000100240BA
:102290000008005008B501F0A9F87D20C00000F04A
:1022A000DFFF50A20221002000F098F94FA2022186
:1022B0004E2000F093F9402105200007FEF76EFA4A
:1022C000002870D1022105200007FEF767FA0028D8
:1022D00069D000BF00204749C870032008710C2155
:1022E000444801F0CFF800BF434800880121C903EA
:1022F00008400028F8D000203F490880642000F002
:10230000AFFF3E480078C128E4D1102000903B4840
:10231000427902231946282000F01CF91020009071
:102320003648027A022319466E2000F013F9102075
:1023300000903248C07800023049097908430246CB
:10234000022300215A2000F005F929E00A2000F0BC
:1023500087FFFFF747FF002800D023E028480088C8
:102360000121C9030840002809D0254800888104BC
:10237000890C244801F086F80020214908801E4875
:1023800000880121C9030840002809D01A480088A4
:102390008104890C194801F083F80020164908804F
:1023A000D4E700E01CE0102000901248427902239C
:1023B0001946282000F0CEF8102000900D48027A2F
:1023C000022319466E2000F0C5F8102002230322D4
:1023D000002100905A2000F0BDF800200649088036
:1023E00008BD0000416464723A00000043686C3A22
:1023F00000000000230000200A000020F800002058
:10240000080000203000002000BFFEE770B5002467
:1024100019E02146B031C8B2002100F0F8F80021DF
:10242000022000F0F4F80021102000F0F0F8002560
:1024300005E00121002000F0EAF8681CC5B2802DFB
:10244000F7DB601CC4B2082CE3DB70BD70B504463A
:102450000D462946B031C8B2002100F0D8F8F0216D
:102460002140091108461030002100F0D0F8210762
:10247000090F012211430846002100F0C8F870BD81
:10248000F7B50E461546002731460098FFF7DEFFE8
:1024900000240AE0A901114A8918085D012100F011
:1024A000B6F8781CC7B2601CC4B2102CF2DB701CEA
:1024B000C1B20098FFF7CAFF00240CE06900491C74
:1024C0004901064A8918085D012100F0A0F8781C2E
:1024D000C7B2601CC4B2102CF0DBFEBD613D000829
:1024E000F8B506460D4617460020009000243846F1
:1024F0002038C0B200907F2E02DD0026A81CC5B295
:1025000029463046FFF7A2FF002409E0009909019F
:1025100009190F4A505C012100F079F8601CC4B21F
:10252000082CF3DB681CC1B23046FFF78FFF002494
:102530000AE00099090109190831054A505C012196
:1025400000F065F8601CC4B2082CF2DBF8BD000096
:1025500071370008FFB583B01E460C9C0020029026
:10256000002537E0701B401EC1B20A2000F07CFF3E
:10257000014600900598FDF7BDFD0A210190FDF789
:10258000B9FD0F460298002813D1701EA84210DD35
:10259000002F0CD1E10F0919491069430194039AE6
:1025A0008918C8B220220499FFF79AFF10E0012091
:1025B0000290E10F0919491069430194039BC9185E
:1025C000C8B239463031CAB20499FFF789FF00BF5B
:1025D000681CC5B2B542C5DB07B0F0BDF8B504460E
:1025E0000F46154600260EE0AA5D39462046FFF745
:1025F00077FF20460830C4B2782C02DD0024B81CD6
:10260000C7B2701CC6B2A85D0028EDD1F8BD70B588
:1026100004460E46002E06D00122110305200007B5
:10262000FEF7C5F806E00022012109030520000796
:10263000FEF7BDF8002520E000222021052000073C
:10264000FEF7B5F880202040002806D00122802126
:1026500005200007FEF7ABF805E0002280210520E9
:102660000007FEF7A4F80122202105200007FEF74D
:102670009EF86006040E681CC5B2082DDCDB012242
:10268000110305200007FEF792F870BD70477047F0
:1026900070B505460C460648FEF7BEFF04480068C4
:1026A0004562044804600248FEF77AFF70BD0000EE
:1026B000E80200201C00002070B516484078FF2872
:1026C00008D114488078012804D10321124800F071
:1026D000D9FE1EE00F48C07803281AD10D48407873
:1026E00000020C498978084304460A48007900062C
:1026F00008494979090408430649897909020843C8
:102700000449C9790843054629462046FFF7C0FF1A
:1027100000BF70BDF8000020E63E000810B5FEF7CF
:1027200053F810BD00B593B0382105A8FDF76CFD36
:102730000020019002900390049001204002FEF7D7
:10274000D3F802200590C001089000200990402095
:102750000A9002200C9002210D9100210E9110216F
:102760000F91010410910106119103214907129163
:1027700005A8FEF79BFB002801D0FDF773FE07209C
:10278000019002200290002003900490022101A8F1
:10279000FEF716FA002801D0FDF764FE13B000BD65
:1027A0007047000010B50248FEF7E6FF10BD0000BC
:1027B000E80200207FB505460C46002000900190FD
:1027C00002900390104811490860084644600021B7
:1027D0008160C5600161416180218161FEF775FE04
:1027E000002801D0FDF73EFE01200003009069465D
:1027F0000648FEF733FF002801D0FDF733FE0348FB
:10280000FEF7CEFE7FBD0000002C0140E802002054
:1028100010B50268254B984206D001239B079842C9
:1028200002D0234B984205D170241346A3431A4685
:102830004B681A431D4B98420FD001239B079842C7
:102840000BD01B4B984208D01A4B984205D01A4B1C
:10285000984202D0194B984206D103242402134611
:10286000A3431A46CB681A4380241346A3434C69FA
:1028700023431A4602608B68C3620B6883620B4B6A
:10288000984205D00C4B984202D00C4B984201D193
:102890000B690363012343610369DB07DB0F002B33
:1028A00003D003695B085B00036110BD002C01408D
:1028B0000004004000200040004401400048014066
:1028C00070B50C468168FF2636020D46B543294691
:1028D0001D02154325432943816070BD0A46816866
:1028E000034B1940072313431943816070470000CD
:1028F0008FFFCFFF70B50B461446026A056A6D085C
:102900006D0005628169F0260D46B5432946250113
:1029100029430A261546B5432A4615461D432A462D
:102920008161026270BD70B50B461446026A056A89
:102930001026B543056281690F2636030D46B5435F
:10294000294625032943A0261546B5432A461D01DD
:102950002A438161026270BD0822816A1140082900
:1029600007D10168496812039143826B11430268E1
:102970005160018DC907C90F002908D00168496855
:10298000012252049143C26A11430268516002223B
:10299000816A1140022907D101684968D203914335
:1029A000026B1143026851600422816A11400429BC
:1029B00007D10168496812049143426B11430268D0
:1029C00051601022816A1140102907D1016889687D
:1029D00012029143C26B1143026891602022816A06
:1029E0001140202907D10168896812029143026CC5
:1029F0001143026891604022816A1140402915D13B
:102A00000168496892039143426C11430268516026
:102A100001221205416C914208D1016849680322E4
:102A200052059143826C1143026851608022816A91
:102A30001140802907D10168496812039143C26C93
:102A40001143026851607047F8B504460021902098
:102A50000151FDF7B3FE05462068006808210840D3
:102A6000082824D138482B460022890400902046AB
:102A700000F05EFA00281AD000BF00F0D1FB064635
:102A8000012000F0DFFB2068006880218843216876
:102A90000860304600F0D6FB00BF2021882001519D
:102AA00000BF00218420015500BF0320F8BD20682D
:102AB000006804210840042836D123482B46002210
:102AC00009050090204600F033FA00282CD000BF02
:102AD00000F0A6FB0646012000F0B4FB2068006869
:102AE000FF212131884321680860304600F0AAFBAD
:102AF00000BF00BF00F094FB0646012000F0A2FBDF
:102B0000206880684008400021688860304600F0F6
:102B100099FB00BF20218C20015100BF002184209F
:102B2000015500BF0320C1E72021882001518C20DE
:102B300001510020E066206700BF0021842001557C
:102B400000BF0020B2E70000FFFFFF0170B505469F
:102B5000AC6A00215E200153562001532046FEF747
:102B6000F2FE70BD70B5044600BF00F059FB05468B
:102B7000012000F067FB20680068FF2121318843B5
:102B800021680860284600F05DFB00BF00BF00F030
:102B900047FB0546012000F055FB2068806811497D
:102BA000084021688860284600F04CFB00BFE06EBA
:102BB000012810D100BF00F033FB0546012000F0D2
:102BC00041FB20680068102188432168086028467E
:102BD00000F038FB00BF20218C2001510020E0666E
:102BE000606770BDFEFFFFEF70B5044600BF00F0E8
:102BF00017FB0546012000F025FB206800684021F6
:102C0000884321680860284600F01CFB00BF202193
:102C1000882001510020A0672046FFF7BCFA70BD54
:102C2000F0B58DB0044600200590B7492068884271
:102C300000D100E000BF2169A06808436169084332
:102C4000E1690843079020680068B0490840079987
:102C5000084321680860206840680321090388430D
:102C6000E168084321684860A0690790A649206888
:102C7000884203D0206A079908430790206880683B
:102C8000A349084007990843216888602068C06A02
:102C900000090001616A08432168C86200BF9D49BC
:102CA0002068884217D19C4840698007800F00281F
:102CB00006D0012808D0022804D0032808D105E056
:102CC000002607E0022605E0042603E0082601E0CE
:102CD000102600BF25E091492068884201D10026D6
:102CE0001FE08949206888421AD18B484069032136
:102CF00089020840002808D001218902401A08D022
:102D0000401A04D0401A08D105E0002607E0022648
:102D100005E0042603E0082601E0102600BF00E0DD
:102D2000102600BF78492068884263D1002E06D063
:102D3000022E08D0042E08D0082E0DD109E0FEF78F
:102D40002FF805460CE0764D0AE0FEF73DF8054603
:102D500006E00125ED0303E000250120059000BFFA
:102D600000BF002D14D0606A40006E4A115A2846F8
:102D7000FDF7C0F904906068410041180498814251
:102D800004D8606801030498814202D201200590B2
:102D9000AEE0606A40006349085A02460023019091
:102DA00028461946FDF7BCF9FF2301330022099399
:102DB00008920A910B901A46089BFDF7E1F96268A8
:102DC000520800238018594103910290606802461E
:102DD00001900298FDF7A4F90746032109028F42EA
:102DE00005D35148874202D82068C76080E001209F
:102DF00005907DE00121C903E069884241D1002EA0
:102E000006D0022E08D0042E08D0082E0DD109E0DD
:102E1000FDF7C6FF05460CE0414D0AE0FDF7D4FF83
:102E2000054606E00125ED0303E00025012005909D
:102E300000BF00BF002D5BD0606A4000394A115AC4
:102E40002846FDF757F9400061684908401803908B
:102E50006168FDF74FF90746102F0FD333488742BB
:102E60000CD832480F38384006903807400F069982
:102E70000843069006982168C86039E00120059053
:102E800036E0002E06D0022E08D0042E08D0082EE0
:102E90000DD109E0FDF784FF05460CE0204D0AE066
:102EA000FDF792FF054606E00125ED0303E000254E
:102EB0000120059000BF00BF002D19D0606A4000BE
:102EC000184A115A2846FDF715F961684908401853
:102ED00003906168FDF70EF90746102F06D31348DB
:102EE000874203D8B8B22168C86001E0012005908C
:102EF00001216A2001536820015300206067A06708
:102F000005980DB0F0BD000000800040F369FFCFD0
:102F1000FFF4FF110038014040100240004400401F
:102F20000024F400C2340008FFFF0F00FFFF000080
:102F3000FFB581B004460D4617460A9E46E0701C58
:102F4000002843D0FDF73AFC0499401AB04201D85A
:102F5000002E02D1032005B0F0BD206800680421D6
:102F60000840002832D0802D30D0402D2ED020684F
:102F7000C06908210840C00800280FD00820216837
:102F800008622046FFF7EEFD08219020015100BFA6
:102F900000218420015500BF0120DCE72068C069C2
:102FA0000121C9020840C00A00280FD00846216844
:102FB00008622046FFF7D6FD20219020015100BF76
:102FC00000218420015500BF0320C4E72068C069A8
:102FD0002840A84201D1012000E00020B842AED034
:102FE0000020B8E708B52A480068C06920210840D9
:102FF0004009002848D07D23DB000122694624488F
:10300000FEF7A8FF234800880121C90308400028D3
:103010003AD12048008849100840002815D0684659
:1030200000780A2803D000201A4908802CE01948AB
:1030300000880121C9030843164908800020098837
:103040008904890C144A50541EE0684600780D2803
:1030500007D1104800880121890308430D490880E1
:1030600012E0684600780B4909888904890C0A4AED
:10307000505408480088401C0649088008460088CB
:10308000C72801DD002008800148FEF75DFC08BD6F
:10309000C0010020080000203000002010B50446C8
:1030A00009480A4908600846446000218160C160FF
:1030B00001610C21416100218161FEF768FE002859
:1030C00001D0FDF7CFF910BD00380140C00100204C
:1030D00008B524480068C06920210840400900283C
:1030E00024D07D23DB00012269461E48FEF732FF13
:1030F0001D4800888004800CC82813DA1B4800880B
:103100000121C903084000280CD1684600781649FF
:1031100009888904890C164A505413480088401CB9
:103120001149088020200F49096808620D4800688D
:10313000C06910210840000900280FD00A48008803
:10314000C902084308490880002009888904890CBD
:10315000074A505410200349096808620148FEF7E5
:10316000F3FB08BD540200200A00002008000020E4
:10317000F800002010B5044609480A4908600846CE
:10318000446000218160C16001610C214161002126
:103190008161FEF7FCFD002801D0FDF763F910BD49
:1031A000004400405402002010B5002819DB1A4AE0
:1031B00003231B02D21883089B00D2588307DC0E1E
:1031C000FF23A3409A438B071B0E8407E40EA34002
:1031D0001A43114B032424021B198408A4001A511A
:1031E00018E00E4A03071B0F083B9B089B00D258B0
:1031F0008307DC0EFF23A3409A438B071B0E840733
:10320000E40EA3401A43054B0407240F083CA4080E
:10321000A4001A5110BD000000E100E01CED00E028
:10322000EFF31080704702E008C8121F08C1002A9F
:10323000FAD170477047002001E001C1121F002A37
:10324000FBD1704780F310887047000010B504462A
:103250000420FEF709F90148046010BD00000020B9
:1032600030B50446002504E07D20C00000F004F8DD
:103270006D1CA542F8D330BD70B5034600220E4E3A
:1032800075690E4E36685E4334460B4EB1690FE0E9
:10329000094EB06988420BD0884202D20E1AB21889
:1032A00002E02E1A7618B2180146A24200D300E0BE
:1032B000EEE700BF70BD000000E000E0000000206D
:1032C00008B5FDF78DFAFFF72DFA4020FFF7BEFF96
:1032D00000213F48FFF76EFAE1204002FFF7DEFED3
:1032E000E1204002FFF746FFFEF78CFFFEF756FF96
:1032F000FCF7C8FFFFF78AF836A200211020FFF77D
:103300006DF9002204211046FFF7BAF801220421CA
:103310001020FFF7B5F8022204212020FFF7B0F8B3
:10332000032204213020FFF7ABF8052200214B20B7
:10333000FFF7A6F83A2204214020FFF7D1F8102029
:1033400002230022062100901046FFF703F93A22DB
:1033500006211020FFF7C4F81020022300220621C6
:1033600000901820FFF7F6F83A2206212820FFF7F0
:10337000B7F8102002230022062100903020FFF72A
:10338000E9F8FEF787FF22E0FF21F53113480068D6
:10339000FCF7B0FE00290AD100220121C903104820
:1033A000FDF705FA0122D1030D48FDF700FA0D489B
:1033B00000880121C9030840002808D000200949DD
:1033C000088009480078032801D1FFF775F9DBE789
:1033D000FF3100004C6F5261000000001C00002013
:1033E000000800500A000020F800002000B587B057
:1033F000142102A8FCF708FF00BF00BF1948406B6A
:1034000001210843174948630846406BC007C00FB5
:10341000019000BF00BF00BF00BF00BF0846406B67
:10342000012108430F4948630846406BC007C00F9D
:10343000019000BF00BF00BF402002900020039019
:10344000012004900020059002A905200007FDF747
:10345000B9F80220029002A905200007FDF7B2F892
:1034600007B000BD0010024010B50246012002E086
:103470000346534318460B464C1EE1B2002BF7D1CE
:1034800010BD000070B504460D46034B2A46214688
:103490000248FEF707FE70BDFFFF00005402002047
:1034A00070B504460D46034B2A4621460248FEF7F6
:1034B000F9FD70BDFFFF0000C0010020081C304472
:1034C0005800010002000400060008000A000C0079
:1034D000100020004000800000010000081C304463
:1034E0005800000000000000000000000000000084
:1034F00000000000000000000000000000000000CC
:1035000000000000010000000200000003000000B5
:103510000400000006000000070000000800000092
:103520000900000000000000000000000000000092
:103530000000000001000000020000000300000085
:1035400004000000081C3044580000000000000087
:1035500000002F000000000700070000147F147F08
:103560001400242A7F2A12006264081323003649BB
:1035700055225000000503000000001C22410000FD
:103580000041221C000014083E08140008083E08F0
:1035900008000000A060000008080808080000609B
:1035A000600000002010080402003E5149453E0022
:1035B00000427F4000004261514946002141454B95
:1035C00031001814127F10002745454539003C4A48
:1035D000494930000171090503003649494936005F
:1035E000064949291E000036360000000056360004
:1035F00000000814224100001414141414000041A7
:1036000022140800020151090600324959513E00B6
:103610007C1211127C007F49494936003E414141EC
:1036200022007F4141221C007F49494941007F0916
:10363000090901003E4149497A007F0808087F00D6
:1036400000417F4100002040413F01007F081422DB
:1036500041007F40404040007F020C027F007F0419
:1036600008107F003E4141413E007F0909090600E4
:103670003E4151215E007F091929460046494949CA
:10368000310001017F0101003F4040403F001F2009
:1036900040201F003F4038403F006314081463007F
:1036A000070870080700615149454300007F414108
:1036B0000000552A552A55000041417F00000402B0
:1036C00001020400404040404000000102040000AC
:1036D0002054545478007F484444380038444444CB
:1036E0002000384444487F00385454541800087E61
:1036F0000901020018A4A4A47C007F080404780037
:1037000000447D4000004080847D00007F102844FC
:10371000000000417F4000007C04180478007C0811
:1037200004047800384444443800FC24242418005D
:1037300018242418FC007C0804040800485454543D
:103740002000043F444020003C4040207C001C20DE
:1037500040201C003C4030403C00442810284400DD
:103760001CA0A0A07C004464544C441414141414F1
:103770001400000000000000000000000000000035
:1037800000000000F80000000000000033300000DE
:103790000000100C06100C060000000000000000E5
:1037A0000040C07840C0784000043F04043F040457
:1037B00000007088FC08300000001820FF211E0067
:1037C00000F008F000E018000000211C031E211E7C
:1037D0000000F00888700000001E21232419272112
:1037E0001010160E00000000000000000000000095
:1037F00000000000E018040200000000071820404C
:103800000000020418E0000000004020180700003B
:1038100000404080F0804040000202010F0102029F
:1038200000000000F0000000000101011F01010183
:1038300000000000000000000080B07000000000E8
:103840000000000000000000000001010101010172
:103850000100000000000000000030300000000007
:1038600000000000008060180400601806010000DD
:103870000000E010080810E000000F102020100FDA
:1038800000001010F8000000000020203F20200061
:1038900000007008080888700000302824222130B9
:1038A0000000300888884830000018202020110EC1
:1038B000000000C02010F8000000070424243F246A
:1038C0000000F80888880808000019212020110E3F
:1038D0000000E0108888180000000F112020110E51
:1038E0000000380808C83808000000003F00000049
:1038F000000070880808887000001C222121221C0A
:103900000000E010080810E0000000312222110F32
:1039100000000000C0C000000000000030300000C7
:103920000000000080000000000000806000000037
:103930000000008040201008000001020408102050
:10394000004040404040404000040404040404049B
:103950000000081020408000000020100804020130
:1039600000007048080808F0000000003036010030
:1039700000C030C828E810E0000718272423140BE3
:10398000000000C038E0000000203C23020227387D
:103990002008F8888888700000203F202020110E21
:1039A00000C0300808080838000718202020100838
:1039B0000008F808080810E000203F202020100F21
:1039C0000008F88888E8081000203F2020232018ED
:1039D0000008F88888E8081000203F200003000055
:1039E00000C03008080838000007182020221E02F6
:1039F0000008F808000008F808203F210101213FD5
:103A000020000808F8080800000020203F202000BF
:103A10000000000808F8080800C08080807F0000CF
:103A20000008F888C028180800203F200126382008
:103A30000008F8080000000000203F20202020306F
:103A40000008F8F800F8F80800203F003F003F2089
:103A50000008F830C00008F808203F200007183F91
:103A600000E01008080810E0000F10202020100FC0
:103A70000008F808080808F000203F2101010100B3
:103A800000E01008080810E0000F18242438504FF8
:103A90000008F8888888887000203F2000030C30D8
:103AA0002000708808080838000038202121221CD6
:103AB00000180808F8080818000000203F2000003F
:103AC0000008F808000008F808001F202020201F28
:103AD000000878880000C83808000007380E010088
:103AE00000F80800F80008F800033C0700073C0352
:103AF00000081868808068180820302C03032C30D8
:103B0000200838C800C83808000000203F20000006
:103B10000010080808C8380800203826212020187E
:103B200000000000FE020202000000007F40404052
:103B300000000C30C000000000000000010638C08A
:103B40000000020202FE000000004040407F000032
:103B50000000000402020204000000000000000057
:103B600000000000000000000080808080808080D5
:103B700080000202040000000000000000000000BD
:103B80000000008080808000000019242222223F53
:103B90002008F8008080000000003F112020110E56
:103BA000000000008080800000000E112020201105
:103BB00000000000808088F800000E112020103FD7
:103BC000200000808080800000001F22222222131B
:103BD00000008080F0888888180020203F20200086
:103BE000000000808080808000006B94949493603B
:103BF0000008F8008080800000203F210000203F66
:103C00002000809898000000000020203F20200025
:103C100000000000809898000000C08080807F0035
:103C20000008F8000080808000203F24022D302012
:103C300000000808F8000000000020203F202000BD
:103C4000008080808080808000203F20003F200016
:103C50003F8080008080800000203F210000203FC6
:103C6000200000808080800000001F202020201F76
:103C700000808000808000000080FFA12020110EC5
:103C8000000000008080808000000E112020A0FF36
:103C900080808080008080800020203F21200001E3
:103CA00000000080808080800000332424242419B8
:103CB00000008080E0808000000000001F202000C5
:103CC000008080000000808000001F202020103F26
:103CD00020808080000080808000010E3008060176
:103CE0000080800080008080800F300C030C300F3B
:103CF0000000808000808080000020312E0E312066
:103D000000808080000080808080818E7018060195
:103D10000000808080808080000021302C222130B3
:103D20000000000000807C020200000000003F4014
:103D30004000000000FF00000000000000FF000045
:103D4000000002027C800000000040403F000000B4
:103D5000000006010102020404000000000000004F
:103D6000000010101010D030FF30D01010101000D4
:103D70000000000000000000000000000000000043
:103D80000010080402090808FF08080902040810C6
:103D90000000000000000000000000000000000023
:103DA00000202020FF202080F88040FF2010F0001D
:103DB0000000000000000000000000000000000003
:103DC000001030100F0808003F40405F4244437825
:103DD00000000000000000000000000000000000E3
:103DE0000000FC848484FC001010101010FF1010E0
:103DF00000000000000000000000000000000000C3
:103E000000003F1010103F0000010640807F0000BE
:103E100000000000000000000000000000000000A2
:103E20000000F8010600F0121212F2020202FE0077
:103E30000000000000000000000000000000000082
:103E40000000FF0000001F1111111F0040807F00C3
:103E50000000000000000000000000000000000062
:103E60000000080808080809FA08080808080800F7
:103E70000000000000000000000000000000000042
:103E800000404041414141417F4141414141404029
:103E90000000000000000000000000000000000022
:103EA0000000000000FF0000000000FF0000000014
:103EB0000000000000000000000000000000000002
:103EC000008040300E01824C2018070007186080E7
:103ED00000000000000000000000000000000000E2
:103EE00000081C30445803FF020000000C3F00088B
:103EF0000000002030000000263200083C3F00088F
:103F0000300000205007000036320008000000009A
:103F1000000000000000000000000000040000009D
:103F2000010000000024F40000000000000000C0B8
:0C3F30000009000017E500500000000030
:04000005080000C12E
:00000001FF
